:020000040000FA
:10000000000004204D0400004504000049040000E5
:100010004504000045040000450400000000000005
:100020000000000000000000000000004504000087
:1000300045040000000000004504000045040000E5
:10004000450400004504000045040000450400008C
:10005000450400004504000045040000450400007C
:10006000450400004504000045040000450400006C
:10007000450400004504000045040000450400005C
:10040000DFF80CD000F006F8004800477D0400003B
:10041000000004201CB509480090094801900546D9
:10042000009C06E0E06840F0010394E8070098476C
:100430001034AC42F6D3FFF7E7FF00002C050000B4
:100440003C050000FEE70000FEE7000000F002F8B7
:10045000FFF7D6FF40F200004EF60851C0F2000050
:10046000CEF20001086040F2040047F64001C2F2FB
:100470000000C0F27D1101607047000010B540F22D
:100480001854C0F20004204600F034F805A000F033
:1004900031F8204600F02EF807A000F02BF80020DD
:1004A00010BD00BF636F727465782D6D3320737457
:1004B00061727475702100007465737420626567E1
:1004C000696E000002E008C8121F08C1002AFAD1B4
:1004D00070477047002001E001C1121F002AFBD1C4
:1004E000704738B504468DF8000069460320ABBE5E
:1004F000204638BD10B5044601E0FFF7F2FF14F8BE
:10050000010B04490028F8D1BDE810400A20FFF78C
:10051000E8BF0000000000202A2A2A2A2A2A2A2AC4
:100520002A2A2A2A2A2A2A2A2A2A00003C050000E6
:100530000000002008000000C404000000000000CB
:0405400040787D0181
:0400000500000401F2
:00000001FF
